:1000000019C1000047C1000045C1000043C1000004
:1000100041C100003FC100003DC100003BC10000E4
:1000200039C1000037C1000035C1000033C10000F4
:1000300031C100002FC100002DC100002BC1000004
:1000400029C1000027C1000025C1000023C1000014
:1000500021C100001FC100001DC100002DC700000C
:1000600019C100007EC2000053C2000013C100008D
:1000700011C100000FC100000DC100000BC1000044
:1000800009C1000007C1000005C1000003C1000054
:1000900001C10000FFC00000FDC00000FBC0000067
:1000A000F9C00000F7C00000F5C00000F3C0000078
:1000B000F1C00000EFC00000EDC00000EBC0000088
:1000C000E9C00000E7C00000E5C00000E3C0000098
:1000D000E1C00000DFC00000DDC00000DBC00000A8
:1000E000D9C00000A713AC13B113BB13C5133E1442
:1000F000CF13D713DF13E913F313FD130C141614E6
:100100003E1420142A1434140D071007FF060307A9
:1001100007074707140718071E07220726072C079B
:100120003007340747073A073E074207000021001F
:10013000240027002A002D003000330001010000B8
:10014000040107010A0100002200250028002B00FD
:100150002E003100340002010000050108010B01EE
:1001600005050505070508080808020202020A0A33
:100170000808040404040101010101010101030351
:10018000030303030303040707070C0C0C0C0C0CFC
:100190000C0C0202020206060606060606060B0BF9
:1001A0000B0B0B0B0B0B010210202008081020403A
:1001B000102040800201020108040201010204082B
:1001C00010204080804020100804020180040201B9
:1001D0008040201008040201080402010102040802
:1001E00010204080010204081020408000000A0B0B
:1001F00002090C0D0E0807030401000000000000B6
:1002000000000000000000000000000000000000EE
:1002100000000000000000001211100000000000AB
:1002200000000000000000000000000000000000CE
:1002300000006E1511241FBECFEFD1E2DEBFCDBF8F
:1002400000E00CBF12E0A0E0B2E0E8E7F7E300E076
:100250000BBF02C007900D92AC32B107D9F722E074
:10026000ACE2B2E001C01D92AC3FB207E1F711E091
:10027000CAE1D1E000E006C021970109802FFE010C
:100280000E948D1AC931D10780E00807A9F75ED610
:100290000C94BA1BB5CECF92DF92EF92FF920F93E0
:1002A0001F93CF93DF936C017A018B01C0E0D0E004
:1002B000CE15DF0581F0D8016D918D01D601ED914C
:1002C000FC910190F081E02DC6011995892B11F068
:1002D0002196EECF7E01C701DF91CF911F910F9143
:1002E000FF90EF90DF90CF900895089580E090E028
:1002F0000895FC01538D448D252F30E0842F90E02C
:10030000821B930B541710F0CF9608950197089510
:10031000FC01918D828D981761F0828DDF01A80F0D
:10032000B11D5D968C91928D9F5F9F73928F90E02F
:1003300008958FEF9FEF0895FC01918D828D98179E
:1003400031F0828DE80FF11D858D90E008958FEFDB
:100350009FEF0895FC01918D228D892F90E0805CA4
:100360009F4F821B91098F739927089588E392E02C
:10037000F1DF21E0892B09F420E0822F0895FC01B0
:10038000848DDF01A80FB11DA35ABF4F2C91848D1E
:1003900090E001968F739927848FA689B7892C9353
:1003A000A089B1898C91837080648C93938D848DA6
:1003B000981306C00288F389E02D80818F7D8083A9
:1003C0000895EF92FF920F931F93CF93DF93EC0169
:1003D00081E0888F9B8D8C8D981305C0E889F98901
:1003E000808185FD25C0F62E0B8D10E00F5F1F4F1D
:1003F0000F731127E02E8C8DE8120BC00FB607FC8F
:10040000FACFE889F989808185FFF5CFCE01B7DF82
:10041000F2CF8B8DFE01E80FF11DE35AFF4FF08202
:100420009FB7F8940B8FEA89FB89808180620AC0AC
:100430009FB7F894EE89FF896083E889F989808104
:100440008370806480839FBF81E090E0DF91CF91D3
:100450001F910F91FF90EF900895CF93DF93EC01E0
:10046000888D8823C1F0EA89FB89808185FD05C0DC
:10047000A889B9898C9186FD0EC00FB607FCF5CF0F
:10048000808185FFF2CFA889B9898C9185FFEDCF56
:10049000CE0175DFE8CFDF91CF91089580E090E045
:1004A000892B19F063DF811125C080E090E0892B52
:1004B00041F080E090E0892B21F00E940000811142
:1004C0001CC080E090E0892B41F080E090E0892B17
:1004D00021F00E940000811113C080E090E0892B80
:1004E000A1F080E090E0892B81F00E940000811152
:1004F0000AC008950E940000D8CF0E940000E1CFFA
:100500000E940000EACF0C94000008950E94B61BE0
:100510001F920F920FB60F9211240BB60F922F93CA
:100520003F934F935F936F937F938F939F93AF937B
:10053000BF93EF93FF9388E392E021DFFF91EF9168
:10054000BF91AF919F918F917F916F915F914F91EB
:100550003F912F910F900BBE0F900FBE0F901F90E9
:1005600018951F920F920FB60F9211240BB60F928F
:100570002F938F939F93EF93FF93E0914802F09115
:1005800049028081E0914E02F0914F0282FD12C03B
:100590009081809151028F5F8F7320915202821758
:1005A00051F0E0915102F0E0E85CFD4F958F8093AF
:1005B000510201C08081FF91EF919F918F912F9106
:1005C0000F900BBE0F900FBE0F901F9018956F925B
:1005D0007F928F929F92AF92BF92CF92DF92EF92D3
:1005E000FF920F931F93CF93DF93EC018A819B813E
:1005F0008230910599F054F4019709F0DBC0EC8149
:10060000FD81E088F188028913891DC1833091053D
:1006100009F44DC0049709F48EC0CCC0888199813B
:100620008130910519F0029711F1C4C0EC81FD8170
:10063000A088B188C288D38820E030E0A901B50144
:10064000C6010E94221A18160CF0B4C0EE81FF8178
:10065000E088F1880289138920E030E0A901B70120
:10066000C8010E94221A18160CF4A9C0A3C0EC817C
:10067000FD81A088B188C288D38820E030E0A9013C
:10068000B501C6010E94221A0E80DF81C02D181606
:100690000CF49EC020E030E0A901688979898A893C
:1006A0009B890E94221A18160CF492C083C088817C
:1006B00099818130910519F0029701F17BC0EC819D
:1006C000FD81E088F1880289138920E030E0A901EA
:1006D000B701C8010E94221A18160CF06BC0C8841A
:1006E000D984C60174DF4B015C0120E030E0A90130
:1006F0000E94221A18160CF47AC05CC0EC81FD81AD
:10070000E088F1880289138920E030E0A901B7016F
:10071000C8010E94221AC884D98418160CF470C02B
:10072000C60155DF20E030E0A9010E94221A181608
:100730000CF466C03FC0888199818130910519F021
:100740000297F1F037C008851985C80140DF6B01B9
:100750007C0120E030E0A9010E94221A181654F50D
:100760007A846B84872D962D32DF4B015C0120E06B
:1007700030E0A9010E94221A18160CF44BC01AC0CE
:10078000E884F984C70123DF4B015C0120E030E0FD
:10079000A9010E94221A0A851B8518160CF447C06D
:1007A000C80115DF20E030E0A9010E94221A1816C6
:1007B0000CF43DC0E12CF12C00E010E044C09701A6
:1007C000A801B501C6010E94D31887FF3CC00CC028
:1007D000E888F9880A891B899701A801B501C60133
:1007E0000E94221A18167CF5750186012CC097010B
:1007F000A801C501B4010E94221A18164CF423C0A6
:10080000C601E5DE9701A8010E94D31887FD1BC031
:10081000E601ECCEA5019401C701B6010E94D318F0
:1008200087FD03C0C72DD62DE1CEE801DFCEC8017C
:10083000CEDE9B01AC01C501B4010E94221A18163C
:10084000A4F7E701D3CEB701C801DF91CF911F9183
:100850000F91FF90EF90DF90CF90BF90AF909F905F
:100860008F907F906F900895FC0111821082138207
:1008700012821582148217821682118610861386C0
:10088000128608954F925F926F927F928F929F92FD
:10089000AF92BF92CF92DF92EF92FF920F931F938E
:1008A000CF93DF93CDB7DEB768970FB6F894DEBF6E
:1008B0000FBECDBF4D875E876F87788B098B1A8BF4
:1008C0002B8B3C8B28A939A94AA95BA968AD79ADC6
:1008D0008AAD9BAD0E946E186D8B7E8B8F8B988F2F
:1008E0002D853E854F855889C701B6010E946E1837
:1008F0006D837E838F8398872CA53DA54EA55FA52C
:100900006CA97DA98EA99FA90E946E186B017C011C
:1009100029893A894B895C89C501B4010E946E1806
:1009200069877A878B879C872D813E814F81588587
:100930006D897E898F89988D0E94261A4B015C01F2
:1009400029853A854B855C85C701B6010E94261A28
:100950009B01AC01C501B4010E946E182B013C0142
:1009600020E030E0A9010E94D31887FF04C077FA85
:10097000709477F870942FE632E143E85AE3C301AC
:10098000B2010E94D31887FDC3C028A939A94AA97A
:100990005BA969897A898B899C890E946E184B01B1
:1009A0005C012CA53DA54EA55FA56D857E858F8537
:1009B00098890E946E1869837A838B839C83A50132
:1009C0009401C701B6010E94261A6B017C0129819E
:1009D0003A814B815C816D897E898F89988D0E94D7
:1009E000261A9B01AC01C701B6010E946E186B016B
:1009F0007C0120E030E0A9010E94D31887FF04C0E9
:100A0000F7FAF094F7F8F094A50194016D817E81D6
:100A10008F8198850E94261A4B015C0129813A81B9
:100A20004B815C8169857A858B859C850E94261A1D
:100A30009B01AC01C501B4010E946E184B015C0121
:100A400020E030E0A9010E94D31887FF04C0B7FA64
:100A5000B094B7F8B094A3019201C701B6010E9407
:100A6000D7186B017C0120E030E0A9010E94D31867
:100A700087FD4EC020E030E040E85FE3C701B601EB
:100A80000E94221A18160CF443C0A3019201C5015A
:100A9000B4010E94D7184B015C0120E030E0A901AD
:100AA0000E94D31887FD34C020E030E040E85FE3C7
:100AB000C501B4010E94221A181654F1A70196012B
:100AC0006D817E818F8198850E94261A2D853E85B5
:100AD0004F8558890E946F18ECADFDAD608371831E
:100AE00082839383A701960169857A858B859C858E
:100AF0000E94261A29893A894B895C890E946F18BD
:100B0000EEADFFAD608371838283938381E001C08A
:100B100080E068960FB6F894DEBF0FBECDBFDF91C0
:100B2000CF911F910F91FF90EF90DF90CF90BF90EA
:100B3000AF909F908F907F906F905F904F900895AF
:100B40000F931F93CF93DF93EC018B0184E090E030
:100B50000E94951A0097B9F0FC011183008313825B
:100B60001282EE81FF81309719F49F838E8309C032
:100B7000228133812115310511F0F901F9CF9383D9
:100B8000828381E001C080E0DF91CF911F910F91BE
:100B90000895CF93DF936115710549F0EB016A85E4
:100BA0007B85F7DFCE01DF91CF910C942D1BDF9178
:100BB000CF9108958F929F92AF92BF92CF92DF9282
:100BC000EF92FF920F931F93CF93DF93EC014A01B3
:100BD0005B01680179018CE090E00E94951AFC01AC
:100BE000009719F11182108282829382A482B582C9
:100BF000C682D782E086F18613861286A881B981E3
:100C0000109719F4998388830EC01A968D919C9140
:100C10001B97009711F0DC01F8CFB183A0831B96DE
:100C2000FC93EE931A9781E001C080E0DF91CF91B1
:100C30001F910F91FF90EF90DF90CF90BF90AF90FA
:100C40009F908F90089580917B00877F80937B0099
:100C500080E480937C0080917A00806480937A00A5
:100C600080917A0086FDFCCF8091780020917900F8
:100C700090E0922B0895009761F0FC010190002014
:100C8000E9F73197AF01481B590BBC0188E392E0AB
:100C900002CB80E090E008950F931F93CF93DF93F2
:100CA000EC018B0184E090E00E94951A0097B9F066
:100CB000FC011183008313821282EC81FD81309745
:100CC00019F49D838C8309C022813381211531055C
:100CD00011F0F901F9CF9383828381E001C080E0B4
:100CE000DF91CF911F910F910895FC01611571055E
:100CF00089F04115510571F081E090E09183808386
:100D000082E090E093838283758364835783468374
:100D100081E0089580E008950F931F93CF93DF93B0
:100D2000EC018B0184E090E00E94951A0097B9F0E5
:100D3000FC011183008313821282E881F9813097CC
:100D400019F49983888309C02281338121153105E3
:100D500011F0F901F9CF9383828381E001C080E033
:100D6000DF91CF911F910F9108950F931F93CF9310
:100D7000DF93EC018B0184E090E00E94951A0097CC
:100D8000B9F0FC011183008313821282E881F9819A
:100D9000309719F49983888309C022813381211502
:100DA000310511F0F901F9CF9383828381E001C00D
:100DB00080E0DF91CF911F910F910895362F90E041
:100DC000FC01E451FE4F4491FC01EA55FE4F249191
:100DD000FC01E05AFE4F9491992309F46CC044231E
:100DE00009F455C050E0FA013197E231F10508F0FD
:100DF0004EC08827EC57FF4F8F4F0C948D1A80916F
:100E000080008F7707C0809180008F7D03C0809124
:100E10008000877F809380003AC084B58F7702C0BE
:100E200084B58F7D84BD33C08091B0008F7703C0BF
:100E30008091B0008F7D8093B00029C08091900098
:100E40008F7707C0809190008F7D03C080919000C4
:100E5000877F809390001BC08091A0008F7707C090
:100E60008091A0008F7D03C08091A000877F809338
:100E7000A0000DC0809120018F7707C080912001D4
:100E80008F7D03C080912001877F80932001E92F0F
:100E9000F0E0EE0FFF1FEA5BFE4FA591B4919FB704
:100EA000F894311104C08C912095282302C0EC9154
:100EB0002E2B2C939FBF08951F920F920FB60F9267
:100EC00011242F933F938F939F93AF93BF93809160
:100ED000F4029091F502A091F602B091F7023091E0
:100EE000F30223E0230F2D3720F40196A11DB11D3D
:100EF00005C026E8230F0296A11DB11D2093F30221
:100F00008093F4029093F502A093F602B093F70257
:100F10008091EF029091F002A091F102B091F20263
:100F20000196A11DB11D8093EF029093F002A09352
:100F3000F102B093F202BF91AF919F918F913F91D7
:100F40002F910F900FBE0F901F901895CF93DF93A6
:100F5000CDB7DEB7C556D1090FB6F894DEBF0FBEC8
:100F6000CDBF789484B5826084BD84B5816084BD32
:100F700085B5826085BD85B5816085BD80916E0037
:100F8000816080936E001092810080918100826068
:100F900080938100809181008160809381008091A5
:100FA00080008160809380008091B1008460809394
:100FB000B1008091B00081608093B0008091910079
:100FC0008260809391008091910081608093910074
:100FD000809190008160809390008091A100826058
:100FE0008093A1008091A10081608093A1008091F5
:100FF000A00081608093A000809121018260809395
:101000002101809121018160809321018091200143
:1010100081608093200180917A00846080937A00BF
:1010200080917A00826080937A0080917A0081605A
:1010300080937A0080917A00806880937A00109281
:10104000C100E0914802F091490282E08083E09182
:101050004402F09145021082E0914602F09147026D
:101060008FEC808310925002E0914C02F0914D027F
:1010700086E08083E0914A02F0914B02808180619A
:101080008083E0914A02F0914B02808188608083E6
:10109000E0914A02F0914B02808180688083E09168
:1010A0004A02F0914B0280818F7D8083CCDDBC01B0
:1010B000990F880B990B611571058105910511F048
:1010C0000E94081888E090E00E94951A8C01EE2496
:1010D000E394F12CDC01ED92FC92FC01128213826C
:1010E00014821582178216826091EB027091EC02D5
:1010F00027DD6091E9027091EA02C80121DD60916B
:10110000E7027091E802C8011BDD6091E502709171
:10111000E602C80115DD6091E3027091E402C801A6
:101120000FDDB8018091ED029091EE021EDE88E0A5
:1011300090E00E94951A8C0182E090E0D8018D9396
:101140009C93F801128213821482158217821682F0
:101150006091E1027091E202C801F2DC6091DF026D
:101160007091E002C801ECDC6091DD027091DE025A
:10117000C801E6DCB8018091ED029091EE02F5DD48
:101180008AE090E00E94951A8C01DC01ED92FC92BD
:10119000FC0112821382148215821782168282E069
:1011A00090E00E94951ADC011D921C92F801918733
:1011B00080876091DB027091DC02C801C1DC609124
:1011C000D9027091DA02C801BBDC6091D70270913C
:1011D000D802C801B5DC6091D5027091D602C80171
:1011E000AFDC4090ED025090EE0284E090E00E946F
:1011F000951A3C01009709F453C0DC0111961C9329
:101200000E9313961C921E921297F8013680278037
:10121000E32CF22CE114F10479F1032D122D0115C8
:10122000110521F1D8011296CD90DC901397C114CD
:10123000D10411F48601F3CFAD90BC90F60180800B
:101240009180D5012D913D914D915C91F40160818A
:101250007181828193810E94D31887FFEBCFD801DF
:101260008D929C92F601B182A082E4CFD7011296B2
:10127000ED90FC901397CECFD2011296ED91FC9198
:101280001397309729F413967C926E92129708C0A8
:1012900082819381009711F0FC01FACF7382628200
:1012A0008CE090E00E94951A5C01DEDA4091DF024A
:1012B0005091E0026091EB027091EC02C50115DDE6
:1012C00082E090E00E94951A6C01FC01118210826C
:1012D0006091D9027091DA021FDD82E090E00E94F5
:1012E000951A8C01DC011D921C926091D7027091BD
:1012F000D80212DD82E090E00E94951A7C01FC0188
:10130000118210826091DB027091DC0205DD87E0C2
:1013100090E00E94951AFC0181E090E09183808327
:101320001282B482A382F682E582BF018091ED022F
:101330009091EE02B1DC8CE090E00E94951A5C0185
:1013400093DA4091DD025091DE026091EB027091E0
:10135000EC02C501CADC87E090E00E94951AFC010E
:1013600082E090E0918380831282B482A382F6822D
:10137000E582BF018091ED029091EE028DDC8CE060
:1013800090E00E94951A5C016FDA4091E102509161
:10139000E2026091EB027091EC02C501A6DC87E0ED
:1013A00090E00E94951AFC0183E090E09183808395
:1013B0001282B482A382F682E582BF018091ED029F
:1013C0009091EE0269DC8CE090E00E94951A5C013D
:1013D0004BDA4091DF025091E0026091E30270919C
:1013E000E402C50182DC82E090E00E94951ADC01F3
:1013F0001D921C926091D5027091D6028DDC87E01F
:1014000090E00E94951AFC0187E090E09183808330
:101410001282B482A38216830583BF018091ED02FC
:101420009091EE0239DC8CE090E00E94951A5C010C
:101430001BDA4091DD025091DE026091E30270916F
:10144000E402C50152DC87E090E00E94951AFC019D
:1014500088E090E0918380831282B482A382168315
:101460000583BF018091ED029091EE0215DC8CE0C6
:1014700090E00E94951A5C01F7D94091E1025091E9
:10148000E2026091E3027091E402C5012EDC87E084
:1014900090E00E94951AFC0189E090E0918380839E
:1014A0001282B482A38216830583BF018091ED026C
:1014B0009091EE02F1DB8CE090E00E94951A5C01C5
:1014C000D3D94091DF025091E0026091E502709122
:1014D000E602C5010ADC87E090E00E94951AFC0153
:1014E00084E090E0918380831282B482A382168389
:1014F0000583BF018091ED029091EE02CDDB8CE07F
:1015000090E00E94951A5C01AFD94091DD025091A4
:10151000DE026091E5027091E602C501E6DB87E03C
:1015200090E00E94951AFC0185E090E09183808311
:101530001282B482A38216830583BF018091ED02DB
:101540009091EE02A9DB8CE090E00E94951A5C017C
:101550008BD94091E1025091E2026091E5027091D5
:10156000E602C501C2DB87E090E00E94951AFC010B
:1015700086E090E0918380831282B482A382F68217
:10158000E582BF018091ED029091EE0285DB8CE057
:1015900090E00E94951A5C0167D94091DF0250915A
:1015A000E0026091E7027091E802C5019EDB87E0EE
:1015B00090E00E94951AFC018AE090E0918380837C
:1015C0001282B482A382F682E582BF018091ED028D
:1015D0009091EE0261DB8CE090E00E94951A5C0134
:1015E00043D94091DD025091DE026091E702709193
:1015F000E802C5017ADB87E090E00E94951AFC01C1
:101600008BE090E0918380831282B482A382F68281
:10161000E582BF018091ED029091EE023DDB8CE00E
:1016200090E00E94951A7C011FD94091E1025091EF
:10163000E2026091E7027091E802C70156DB87E0A1
:1016400090E00E94951AFC018CE090E091838083E9
:101650001282F482E382D682C582BF018091ED02BC
:101660009091EE0219DB8CE090E00E94951A7C01CB
:10167000FBD84091DF025091E0026091E902709145
:10168000EA02C70132DB87E090E00E94951AFC0174
:101690008DE090E0918380831282F482E38216834E
:1016A0000583BF018091ED029091EE02F5DA8CE0A6
:1016B00090E00E94951A7C01D7D84091DD025091AC
:1016C000DE026091E9027091EA02C7010EDB87E059
:1016D00090E00E94951AFC018EE090E09183808357
:1016E0001282F482E38216830583BF018091ED02AA
:1016F0009091EE02D1DA8CE090E00E94951A7C0184
:10170000B3D84091E1025091E2026091E9027091F8
:10171000EA02C701EADA87E090E00E94951AFC012C
:101720008FE090E0918380831282F482E3821683BB
:101730000583BF018091ED029091EE02ADDAFE01CA
:10174000B696F9ABE8AB9E01265D3F4F3BAB2AABAB
:1017500088E392E00E94AA01892B11F40C941C15D5
:1017600088E392E00E948801882311F40C941C15F0
:101770006ADABC01990F880B990B0E9472192DEA45
:1017800039E64EE55DE30E94261A2FE335E34EE08D
:1017900050E40E946E1829E335E040EF50E40E94C7
:1017A000261A9B01AC01609334027093350280933A
:1017B00036029093370260E070E088E493E40E9480
:1017C0006E186B017C018090300290903102A090E5
:1017D0003202B090330220E030E0A901C501B4012B
:1017E0000E94221A181624F0B7FAB094B7F8B094F1
:1017F00020E030E0A901C701B6010E94221AA7012A
:10180000960118160CF05058C501B4010E946E18CC
:1018100060933002709331028093320290933302CE
:1018200020E030E046E953E40E94D71860932C0290
:1018300070932D0280932E0290932F024091ED021F
:101840005091EE0222965FAF4EAF2297DA012D90B3
:101850003C90F101309799F0A081B1812D913C919C
:1018600011972130310539F41296CD92DD92ED9227
:10187000FC92159704C00280F381E02DEBCFF101BB
:10188000309771F0A081B1812D913C911197223058
:10189000310541F412966D937D938D939C9315972A
:1018A000910109C00280F381E02DEACFD90112969F
:1018B0002D913C91139721153105B1F0F901A081CB
:1018C000B18116960D90BC91A02D109779F38D9152
:1018D0009C911197FC01108A118A128A138A129620
:1018E0000D90BC91A02DF1CF2296EEADFFAD2297C9
:1018F0000280F381E02D2696FFAFEEAF26979F0181
:101900002115310509F48BC0F901A081B18116962A
:101910000D90BC91A02D109769F08D919C9111971D
:10192000FC01108A118A128A138A12960D90BC91BA
:10193000A02DF1CFD90112962D913C911397E0CFB4
:101940002896AEADBFAD28971296CD90DD90ED9064
:10195000FC901597FA0100811181D8012D913D91DC
:101960004D915C912CAB3DAB4EAB5FABC701B6016B
:101970000E94D318F801448055806680778087FDE7
:101980005FC02CA93DA94EA95FA9C701B6010E945D
:10199000221A87FD77C0A3019201C701B6010E94F8
:1019A000D31887FF6FC02CA93DA94EA95FA9C30119
:1019B000B2010E946E189B01AC0160E070E080E80B
:1019C0009FE30E94D7184B015C01A3019201C7015C
:1019D000B6010E946E189B01AC01C501B4010E94C2
:1019E000261A20E030E040E85FE30E946F18D8013B
:1019F00050966D937D938D939C935397A8ADB9ADFD
:101A000012960D90BC91A02DB9AFA8AF48AD59ADBD
:101A10004115510509F094CFF10122803380211442
:101A2000310409F4C4C0F1010190F081E02D289641
:101A3000FFAFEEAF28972681378139AF28AFE6CFC9
:101A4000A30192016CA97DA98EA99FA90E94D31818
:101A50008111A7C0D8011896CD90DD90ED90FC9033
:101A60001B97A7019601C301B2010E94D3188823D6
:101A700009F497C0F8012485358546855785C70147
:101A8000B6017FC0A3019201C701B6010E94221ACC
:101A900087FD0CC0F8012085318542855385C7013B
:101AA000B6010E94D31818160CF06FC0F80180849C
:101AB0009184A284B384A5019401C701B6010E9458
:101AC000221AD8011C962D913D914D915C911F9742
:101AD0002CAF3DAF4EAF5FAF181684F5C701B6010E
:101AE0000E94D318181654F12CAD3DAD4EAD5FAD2C
:101AF000C501B4010E946E189B01AC0160E070E06A
:101B000080E89FE30E94D7182B013C01A5019401B6
:101B1000C701B6010E946E189B01AC01C301B2015E
:101B20000E94261A20E030E040E85FE30E946F1830
:101B3000F801608B718B828B938B60CF2CAD3DADA8
:101B40004EAD5FADC701B6010E94221A18160CF007
:101B500055CF2CAD3DAD4EAD5FADC501B4010E947A
:101B6000D31881111EC0A5019401C301B2010E94C6
:101B7000D3188823B1F0A30192016CA97DA98EA985
:101B80009FA90E94D318882361F020E030E040E84C
:101B90005FE3D80150962D933D934D935C935397FB
:101BA0002DCFF801108A118A128A138A27CF229624
:101BB000AEADBFAD229714960D911C911597772469
:101BC00073940115110529F4FE01B296FFA7EEA743
:101BD0004FC0D801ED90FC90F7018381948100976C
:101BE000B9F1C580D680C114D10491F10E94E702F9
:101BF0004B015C0120E030E0A9010E94221A181676
:101C000024F4D70112967C9202C0F7011282D60109
:101C1000ED90FC90E114F104D9F0F701C080D1807F
:101C2000D60150962D913D914D915C915397C501F0
:101C3000B4010E94221A18162CF4F601808A918AA7
:101C4000A28AB38AD7011296ED90FC901397E2CF47
:101C5000F80102811381B5CF2696AEADBFAD2697B0
:101C600012960D90BC91A02D2696BFAFAEAF2697D1
:101C700026962EAD3FAD26972115310509F4DCC31C
:101C8000D9012D903C90F10100851185D8016D910D
:101C90007C91C8010E94C905F80111821082D1010E
:101CA00016966D907C9017976114710409F49CC18D
:101CB000F3010081118120E030E0A901D8015096A4
:101CC0006D917D918D919C9153970E94221A1816C7
:101CD0000CF084C1F801C080D180E280F380A701BC
:101CE000960164817581868197810E94D31888232B
:101CF00061F000E010E09801B701A601D10118964B
:101D00008D919C9119970E94DA05F3010081118150
:101D1000D8011496CD90DD90ED90FC901797A70117
:101D2000960118966D917D918D919C911B970E94C3
:101D3000D31881112DC0F801F081FCABD8011196A8
:101D4000BC91B8AFF80152804380F485FCAFD80154
:101D50001D96BC901D971E96AC901E971F969C904A
:101D60007CA968ADC201272F362F492F582FBF2FCE
:101D70006B2F7B2D8A2D992D0E94D3188111E8C0DD
:101D8000D80150960D911D912D913C91539704C10E
:101D9000D80150968C90509751969C90519752969E
:101DA000AC9052975396BC9020E030E040E85FE35F
:101DB000682D792D8A2D9B2D0E94D318811117C073
:101DC00000E010E020E83FE3B701A601F1018085C3
:101DD00091850E94DA05D301ED91FC91008911896A
:101DE000228933894085518562857385D7C0CAA60B
:101DF000DBA6ECA6FDA69401F501C901DF018EA3C7
:101E00009FA3A8A7B9A7D8017C9111966C911197AF
:101E100012965C91129713964C91B9A9BF9388A919
:101E20008F939BA99F93AAA9AF93FF93EF933F939F
:101E30002F93D8011F968C911F978F931E968C918C
:101E40001E978F931D968C911D978F931C968C9146
:101E50008F93FF93EF933F932F934F935F936F93E2
:101E60007F93812C912CE0E8AE2EEFE3BE2E00E0B4
:101E700010E09801FB01CA014F2F5E2F692F782FC8
:101E8000C1010E9442040EA11FA128A539A54AA59F
:101E90005BA56CA57DA5F101808591850E94DA0581
:101EA000D301ED91FC9140855185628573854AA3EC
:101EB0005BA36CA37DA3B089A189928983892B2F11
:101EC0003A2F8C01C901A12FB02F89839A83AB834C
:101ED000BC83E484F584B685A78581E090E08C0F0F
:101EE0009D1F9F938F939FA59F938EA58F930F9375
:101EF0001F933F932F93AF93BF93FF92EF920F9354
:101F00001F933F932F9383818F9382818F9381813E
:101F10008F9380818F93812C912C5401CD01CE2CF5
:101F2000DF2CE92EF82E00E010E020E83FE3C101AD
:101F30000E9442040FB6F894DEBF0FBECDBF0981E8
:101F40001A812B813C814AA15BA16CA17DA126C095
:101F5000D80150968C9050975196BC912196BFAF66
:101F60002197F801F2892796FFAF2797D80153965A
:101F70001C9120E030E040E85FE32196AFAD21976F
:101F8000682D7A2F8F2F912F0E94D318811158C559
:101F900000E010E020E83FE3B701A601F1018085F1
:101FA00091850E94DA05D301ED91FC91C484D5841A
:101FB000E684F7842085318542855385C701B601C3
:101FC0000E94D318882351F000E010E09801B70177
:101FD000A601F101808591850E94DA05D301129650
:101FE0006D907C90139760CEF1010084F185E02D17
:101FF000A296FFAFEEAFA297208131813DAF2CAF0B
:102000004CAD5DAD4115510509F426CE1A01D10143
:102010000D911C9111970115110509F405C2129635
:102020002D913D914D915C9115972A962CAF3DAF26
:102030004EAF5FAF2A97F8012281338144815581E9
:102040002A966CAD7DAD8EAD9FAD2A970E94D318B8
:1020500087FD02C01801DBCF3DAA2CAAACA9BDA9FF
:102060000D90BC91A02DBDABACAB109709F4DCC1B9
:10207000ED91FC912296FFAFEEAF2297309771F36E
:10208000D1011A960D90BC91A02D2C96BFAFAEAF8A
:102090002C97D10116962D913D914D915C911997F8
:1020A00060962CAF3DAF4EAF5FAF6097ACA9BDA9B6
:1020B00012962D913D914D915C91159764962CAFA0
:1020C0003DAF4EAF5FAF649716962D913D914D9108
:1020D0005C91199768962CAF3DAF4EAF5FAF689794
:1020E0006681778180859185F9D7A6966CAF7DAFA3
:1020F0008EAF9FAFA6972A962CAD3DAD4EAD5FAD8E
:102100002A972C96EEADFFAD2C9762817381848166
:102110009581E4D76C966CAF7DAF8EAF9FAF6C9717
:1021200064962CAD3DAD4EAD5FAD64972296AEADDD
:10213000BFAD229712966D917D918D919C911597CF
:10214000CDD72B013C0160962CAD3DAD4EAD5FADC2
:1021500060972C96EEADFFAD2C97668177818085D8
:102160009185BCD7A0966CAF7DAF8EAF9FAFA09787
:102170006C962CAD3DAD4EAD5FAD6C97A6966CAD3B
:102180007DAD8EAD9FADA6970E94261A6B017C0196
:10219000A0962CAD3DAD4EAD5FADA097C301B20191
:1021A0000E94261A9B01AC01C701B60197D768AF00
:1021B00079AF8AAF9BAF20E030E0A901F4D787FF69
:1021C00009C028AD39AD4AAD5BAD505828AF39AF25
:1021D0004AAF5BAF2FE632E143E85AE368AD79AD31
:1021E0008AAD9BADE0D787FD39CF68962CAD3DAD6C
:1021F0004EAD5FAD689760966CAD7DAD8EAD9FAD19
:1022000060976CD74B015C0164962CAD3DAD4EAD33
:102210005FAD64972A966CAD7DAD8EAD9FAD2A976C
:102220005DD76B017C01A5019401C301B2010E943D
:10223000261A2B013C01A7019601A6966CAD7DAD37
:102240008EAD9FADA6970E94261A9B01AC01C301DB
:10225000B20144D72B013C0120E030E0A901A3D713
:1022600087FF04C077FA709477F87094A501940101
:102270006C966CAD7DAD8EAD9FAD6C970E94261AAD
:102280004B015C01A7019601A0966CAD7DAD8EADB2
:102290009FADA0970E94261A9B01AC01C501B40115
:1022A0001DD76B017C0120E030E0A9017CD787FFBE
:1022B00004C0F7FAF094F7F8F09428AD39AD4AADC0
:1022C0005BADC301B20173D74B015C0120E030E08C
:1022D000A90169D787FDC2CE20E030E040E85FE386
:1022E000C501B4010E94221A18160CF4B7CE28AD0D
:1022F00039AD4AAD5BADC701B60159D76B017C0161
:1023000020E030E0A9014FD787FDA8CE20E030E0E3
:1023100040E85FE3C701B6010E94221A18160CF4C8
:102320009DCE8CE090E00E94951A8C01009709F4F4
:1023300095CE2296EEADFFAD2297DC01ED93FC9396
:10234000A50194016C966CAD7DAD8EAD9FAD6C9783
:102350000E94261A2A962CAD3DAD4EAD5FAD2A9750
:10236000BED6D80112966D937D938D939C9315974D
:10237000A5019401A0966CAD7DAD8EAD9FADA097EB
:102380000E94261A60962CAD3DAD4EAD5FAD6097B4
:10239000A6D6F80166837783808791872C962EAD29
:1023A0003FAD2C97338722872296AEADBFAD2297E3
:1023B0001B961C930E931A97F90111830083D10188
:1023C0001296CD90DD90ED90FC90159716968D901D
:1023D0009D90AD90BC9019970C9111961C91C101E4
:1023E0000E942D1BA701960164966CAD7DAD8EAD4C
:1023F0009FAD6497D8D681110BC0A5019401689652
:102400006CAD7DAD8EAD9FAD6897CDD6882319F0AC
:102410001801012BA1F6A296EEADFFADA297019097
:10242000F081E02DFDAFECAFECADFDAD0284F385A6
:10243000E02DFDAFECAFE4CDE091ED02F091EE02C6
:102440000280F381E02D309709F442C1A081B1816F
:102450008D919C911197019799F71896ED91FC91A8
:102460001997008111811CAE1DAE1EAE1FAE2496C1
:102470001CAE1DAE1EAE1FAE24970115110509F44A
:1024800011C1F8010284F385E02DFDABECAB309770
:1024900019F40CA91DA9F1CFD8011296CD90DD90A9
:1024A000ED90FC9015974280538064807580A30165
:1024B0009201C701B60177D6F80136802780F085F2
:1024C000F8AFD8011996BC912596BFAF2597811119
:1024D00005C0A32CB22C0F2F1B2FC4C020E030E06E
:1024E000A901632D722D88AD25969FAD25975BD6EA
:1024F000882371F0ECA9FDA986809780A084B1841F
:1025000020E030E0A901C501B4014DD681114DC0D4
:1025100020E030E0A901632D722D88AD25969FAD96
:10252000259790D7181674F0ACA9BDA91696AC9053
:1025300016971796BC90179718960C91189719969E
:102540001C9106C0A32CB22C08AD25961FAD259773
:10255000A7019601C301B201C1D52B013C01950130
:10256000A80174D720E030E040E05FE36FD75B0163
:102570008C01ECA9FDA92681378140855185632D09
:10258000722D88AD25969FAD25970DD687FF05C086
:1025900020E030E040EC5FE304C020E030E040E4C5
:1025A00050E4C301B20103D656C020E030E0A901D7
:1025B000632D722D88AD25969FAD259743D71816AC
:1025C0001CF520E030E0A901C501B4013BD7181685
:1025D000DCF4A5019401632D722D88AD25969FAD85
:1025E0002597E1D5A7019601811116C0C301B2015B
:1025F00075D52B013C019B01AC01632D722D88AD7B
:1026000025969FAD25971DC0C12CD12C7601A12CFC
:10261000B12C00E010E026C0C301B2015FD52B0150
:102620003C01A5019401632D722D88AD25969FADC7
:10263000259755D520E030E040E05FE307D7A301C0
:10264000920104D75B018C0120E030E040E05FE3C1
:10265000C301B201FBD69B01AC01C701B6013FD556
:102660006B017C01A7019601B501C801EFD69B0162
:10267000AC0124966CAD7DAD8EAD9FAD24972FD56A
:1026800024966CAF7DAF8EAF9FAF24979501A801C4
:102690006CAD7DAD8EAD9FAD22D56CAF7DAF8EAFF5
:1026A0009FAFF7CE20E030E0A9016CAD7DAD8EADDF
:1026B0009FAD79D5882361F02CAD3DAD4EAD5FADBA
:1026C00024966CAD7DAD8EAD9FAD249770D503C0C3
:1026D00060E070E0CB01D3D5AB01BC019A01E0EB27
:1026E000F1E01491EAE6F1E08491882399F090E01A
:1026F000880F991FFC01E45DFE4FA591B491FC0188
:10270000EA5BFE4F859194918FB7F894EC911E2B64
:102710001C938FBF2115310511F460E004C02F3FD9
:10272000310529F461E08AE00E94DE06ACC0E6EFE4
:10273000F1E0E4918E2F90E0FC013197E231F10558
:1027400008F09CC08827EE58FF4F8F4FE6C684B52F
:10275000806884BD47BD97C084B5806284BD48BD94
:1027600092C080918000806880938000509389009F
:102770004093880088C080918000806280938000B0
:1027800050938B0040938A007EC0809180008860C7
:102790008093800050938D0040938C0074C0809192
:1027A000B00080688093B0004093B3006CC080910B
:1027B000B00080628093B0004093B40064C0809108
:1027C0009000806880939000509399004093980007
:1027D0005AC08091900080628093900050939B003B
:1027E00040939A0050C08091900088608093900040
:1027F00050939D0040939C0046C08091A00080684B
:102800008093A0008091A0008F7B8093A0005093C4
:10281000A9004093A80037C08091A00080628093F7
:10282000A0005093AB004093AA002DC08091A0005F
:1028300088608093A0005093AD004093AC0023C00B
:10284000809120018068809320015093290140935A
:10285000280119C08091200180628093200150934B
:102860002B0140932A010FC0809120018860809342
:10287000200150932D0140932C0105C020383105D3
:102880000CF050CF4ACF20E030E0A9016091340233
:1028900070913502809136029091370284D487FF7F
:1028A00008C0109234021092350210923602109233
:1028B0003702C0903402D0903502E0903602F0909A
:1028C0003702A7019601C701B60123D6882319F064
:1028D0008CE192E018C046015701E894B7F82FEF59
:1028E0003FEF4FE75FE7C501B40113D681110EC07A
:1028F0002FEF3FEF4FE75FE7C501B40154D418163F
:102900002CF480E292E00E943B0692C02FEF3FEF52
:102910004FE75FE4C701B60195D518161CF484E2B1
:1029200092E0F1CF2FEF3FEF4FE75FECC701B60129
:102930003AD487FDF4CF20E030E0A901C701B60109
:1029400032D487FF09C06DE288E392E00E94E10182
:10295000F7FAF094F7F8F0942AE037ED43EA5BE3F6
:10296000C701B601BCD34B015C018ED46B017C0165
:10297000B7D49B01AC01C501B401B0D34B015C01DC
:1029800019A28E010F5D1F4F702E612EC701B60177
:102990002AE030E040E050E070D369017A01605DE8
:1029A000D8016E938D01232B242B252B79F7CD0194
:1029B0000E943B066EE288E392E00E94E10183E020
:1029C000F82EFA94FF20A1F120E030E040E251E43B
:1029D000C501B4013BD54B015C0156D49B0140E0DD
:1029E00050E019A2072D162D562EC32ED42EE52EFB
:1029F000CA01B9012AE030E040E050E03ED3605D1A
:102A0000F80162938F01211531054105510581F7C8
:102A1000CF010E943B06652D7C2D8D2D9E2D60D40F
:102A20009B01AC01C501B40159D34B015C01C9CF75
:102A300088E292E00E943B060E944E020C94A80B92
:102A4000CAA6DBA6ECA6FDA6282D21963FAD2197B0
:102A500027964FAD2797512FC901DA018EA39FA367
:102A6000A8A7B9A7F9A9FF9388A98F939BA99F93BA
:102A7000AAA9AF931F934F933F938F929F92AF92C8
:102A8000BF92BCADBF931F934F933F938F924F92D2
:102A90005F92E8ADEF93FCA9FF93812C912CF0E8B5
:102AA000AF2EFFE3BF2E00E010E09801FCA9E8ADD7
:102AB000C2014F2F5E2F692F742DC1010E94420465
:102AC0000EA11FA128A539A54AA55BA56CA57DA5CA
:102AD000D10118968D919C911997E0C94F925F9200
:102AE0006F927F928F929F92AF92BF92CF92DF921E
:102AF000EF92FF92E8E3F2E01382128288EE93E015
:102B0000A0E0B0E084839583A683B7838EE092E053
:102B10009183808385EC90E09587848784EC90E0B6
:102B20009787868780EC90E0918B808B81EC90E09A
:102B3000938B828B82EC90E0958B848B86EC90E07B
:102B4000978B868B118E128E138E148E86E090E0FA
:102B5000ECD4FC011182108213821282158214823D
:102B60009093EE028093ED0284E190E0DED4FC01CC
:102B700080E090E0A0E2B1EC80839183A283B383F4
:102B80001482158216821782108611861286138689
:102B9000412C512C80E2682E81E4782E44865586A3
:102BA00066867786108A118A128A138AF093EC025D
:102BB000E093EB0284E190E0B8D4FC0180E090E087
:102BC000A6E9B3EC80839183A283B3838483958346
:102BD000A683B78380E090E0AAE7B3EC8087918773
:102BE000A287B387C12CD12C98E4E92E92ECF92E60
:102BF000C486D586E686F786108A118A128A138AD9
:102C0000F093EA02E093E90284E190E08ED4FC01C3
:102C100080E090E0A8ECB2EC80839183A283B38340
:102C2000C482D582E682F782C086D186E286F386A8
:102C30001486158616861786108A118A128A138AB8
:102C4000F093E802E093E70284E190E06ED4FC01A7
:102C50001082118212821382C12CD12C28E4E22E20
:102C600022E4F22EC482D582E682F782C086D18623
:102C7000E286F386812C912C38ECA32E32E4B32E1D
:102C800084869586A686B786108A118A128A138A48
:102C90009093E6028093E50284E190E046D4FC0143
:102CA000C082D182E282F38280E090E0AAE7B3E4BE
:102CB00084839583A683B78380E090E0A6E9B3E49C
:102CC00080879187A287B38784879587A687B787F0
:102CD000108A118A128A138AF093E402E093E302C5
:102CE00084E190E022D4FC0180E090E0A0E8BFEB1A
:102CF00080839183A283B38384839583A683B783E0
:102D00008DEC9CECACE4BFEB80879187A287B38706
:102D10001486158616861786108A118A128A138AD7
:102D2000F093E202E093E10284E190E0FED3FC0143
:102D300086E696E6A6E6BFEB80839183A283B38303
:102D400014821582168217821086118612861386C7
:102D500086E696E6A6E6BFE384879587A687B787CB
:102D6000108A118A128A138AF093E002E093DF023C
:102D700084E190E0DAD3FC01108211821282138286
:102D80008DEC9CECACE4BFE384839583A683B7838E
:102D900080E090E0A0E8BFE380879187A287B387B7
:102DA00084879587A687B787108A118A128A138A23
:102DB000F093DE02E093DD0284E190E0B6D3FC0103
:102DC0001082118212821382148215821682178257
:102DD000108611861286138680E090E0A0E2B2E4AD
:102DE00084879587A687B787108A118A128A138AE3
:102DF000F093DC02E093DB0284E190E096D3FC01E7
:102E00004082518262827382C482D582E682F782D6
:102E1000C086D186E286F38684869586A686B786A6
:102E2000108A118A128A138A9093DA028093D90247
:102E300084E190E07AD3FC0180E090E0A0EAB2E483
:102E400080839183A283B38380E090E0A0EFB2E41B
:102E500084839583A683B78380879187A287B3876E
:102E600080E090E0A0E2B3E484879587A687B787E7
:102E7000108A118A128A138AF093D802E093D7023B
:102E800084E190E052D3FC0180E090E0ACE0B3E458
:102E900080839183A283B38380E090E0A8E4B3E4CD
:102EA00084839583A683B78380E090E0AFE7B3E4A3
:102EB00080879187A287B38784879587A687B787FE
:102EC000108A118A128A138AF093D602E093D502EF
:102ED000FF90EF90DF90CF90BF90AF909F908F903A
:102EE0007F906F905F904F9008958F929F92AF92D6
:102EF000BF92CF92DF92EF92FF92CF93DF93EC01DC
:102F0000688179818A819B816115710581059105AF
:102F100021F464E279ED8BE597E02DE133EF41E0B8
:102F200050E07FD049015A019B01AC01A7EAB1E40E
:102F300094D06B017C01ACEEB4EFA501940199D063
:102F4000DC01CB018C0D9D1DAE1DBF1DB7FF03C065
:102F50000197A109B04888839983AA83BB83BC01E8
:102F6000CD019F77DF91CF91FF90EF90DF90CF90D1
:102F7000BF90AF909F908F9008958F929F92AF9245
:102F8000BF92CF92DF92EF92FF9260910002709118
:102F90000102809102029091030261157105810581
:102FA000910521F464E279ED8BE597E02DE133EFB3
:102FB00041E050E036D049015A019B01AC01A7EA3B
:102FC000B1E44BD06B017C01ACEEB4EFA5019401F0
:102FD00050D0DC01CB018C0D9D1DAE1DBF1DB7FF78
:102FE00003C00197A109B0488093000290930102A9
:102FF000A0930202B0930302BC01CD019F77FF9022
:10300000EF90DF90CF90BF90AF909F908F900895FA
:103010006093000270930102809302029093030276
:103020000895052E97FB16F400940FD057FD05D098
:1030300024D007FC02D046F408C050954095309546
:1030400021953F4F4F4F5F4F089590958095709514
:1030500061957F4F8F4F9F4F089531D0A59F900D61
:10306000B49F900DA49F800D911D11240895B7FF6A
:10307000F4CFF3DF821B930B0895A1E21A2EAA1B53
:10308000BB1BFD010DC0AA1FBB1FEE1FFF1FA21718
:10309000B307E407F50720F0A21BB30BE40BF50B15
:1030A000661F771F881F991F1A9469F7609570959E
:1030B000809590959B01AC01BD01CF010895A29F21
:1030C000B001B39FC001A39F700D811D1124911DFC
:1030D000B29F700D811D1124911D08955058BB277A
:1030E000AA270ED075C166D130F06BD120F031F433
:1030F0009F3F11F41EF45BC10EF4E095E7FB51C154
:10310000E92F77D180F3BA17620773078407950711
:1031100018F071F49EF58FC10EF4E0950B2EBA2FC6
:10312000A02D0B01B90190010C01CA01A0011124CD
:10313000FF27591B99F0593F50F4503E68F11A1679
:10314000F040A22F232F342F4427585FF3CF46950A
:1031500037952795A795F0405395C9F77EF41F162C
:10316000BA0B620B730B840BBAF09150A1F0FF0FF6
:10317000BB1F661F771F881FC2F70EC0BA0F621FE2
:10318000731F841F48F4879577956795B795F795D2
:103190009E3F08F0B3CF9395880F08F09927EE0F64
:1031A000979587950895D9D008F481E008950CD0BB
:1031B0000FC107D140F0FED030F021F45F3F19F08D
:1031C000F0C0511139C1F3C014D198F39923C9F358
:1031D0005523B1F3951B550BBB27AA27621773071D
:1031E000840738F09F5F5F4F220F331F441FAA1FD1
:1031F000A9F333D00E2E3AF0E0E830D09150504091
:10320000E695001CCAF729D0FE2F27D0660F771F3E
:10321000881FBB1F261737074807AB07B0E809F020
:10322000BB0B802DBF01FF2793585F4F2AF09E3FB5
:10323000510568F0B6C000C15F3FECF3983EDCF387
:10324000869577956795B795F7959F5FC9F7880F2E
:10325000911D9695879597F90895E1E0660F771F80
:10326000881FBB1F621773078407BA0720F0621B11
:10327000730B840BBA0BEE1F88F7E095089504D00A
:103280006894B111D9C00895BCD088F09F5790F0D0
:10329000B92F9927B751A0F0D1F0660F771F881F7B
:1032A000991F1AF0BA95C9F712C0B13081F0C3D096
:1032B000B1E00895C0C0672F782F8827B85F39F034
:1032C000B93FCCF3869577956795B395D9F73EF4DA
:1032D00090958095709561957F4F8F4F9F4F089582
:1032E000E89409C097FB3EF49095809570956195A0
:1032F0007F4F8F4F9F4F9923A9F0F92F96E9BB2756
:103300009395F695879577956795B795F111F8CFD1
:10331000FAF4BB0F11F460FF1BC06F5F7F4F8F4F3C
:103320009F4F16C0882311F096E911C0772321F032
:103330009EE8872F762F05C0662371F096E8862FCA
:1033400070E060E02AF09A95660F771F881FDAF721
:10335000880F9695879597F90895990F0008550F4E
:10336000AA0BE0E8FEEF16161706E807F907C0F00B
:1033700012161306E407F50798F0621B730B840B13
:10338000950B39F40A2661F0232B242B252B21F4ED
:1033900008950A2609F4A140A6958FEF811D811D8D
:1033A000089597F99F6780E870E060E008959FEFC7
:1033B00080EC089500240A941616170618060906CC
:1033C000089500240A94121613061406050608959B
:1033D000092E0394000C11F4882352F0BB0F40F423
:1033E000BF2B11F460FF04C06F5F7F4F8F4F9F4F63
:1033F000089557FD9058440F551F59F05F3F71F0E5
:103400004795880F97FB991F61F09F3F79F087954B
:103410000895121613061406551FF2CF4695F1DFD4
:1034200008C0161617061806991FF1CF8695710564
:10343000610508940895E894BB2766277727CB0198
:1034400097F908958ADF08F48FEF08950BD0C0CF65
:10345000B1DF28F0B6DF18F0952309F0A2CFA7CF8F
:103460001124EACFC6DFA0F3959FD1F3950F50E06A
:10347000551F629FF001729FBB27F00DB11D639F26
:10348000AA27F00DB11DAA1F649F6627B00DA11DCC
:10349000661F829F2227B00DA11D621F739FB00D72
:1034A000A11D621F839FA00D611D221F749F3327E2
:1034B000A00D611D231F849F600D211D822F762F7B
:1034C0006A2F11249F5750408AF0E1F088234AF078
:1034D000EE0FFF1FBB1F661F771F881F91505040C4
:1034E000A9F79E3F510570F05CCFA6CF5F3FECF38C
:1034F000983EDCF3869577956795B795F795E795B0
:103500009F5FC1F7FE2B880F911D9695879597F9C0
:10351000089523DF880B990B0895EE0FFF1F881F76
:103520008BBF0790F691E02D19940F931F93CF93C3
:10353000DF938230910510F482E090E0E091FA028E
:10354000F091FB0220E030E0A0E0B0E0309719F10C
:10355000408151810281138148175907C8F08417AF
:10356000950769F4109731F012960C931297139601
:103570001C9327C00093FA021093FB0222C021156E
:10358000310519F04217530718F49A01BD01EF01F4
:10359000DF01F801DBCF21153105F9F0281B390BCC
:1035A0002430310580F48A819B816115710521F0F9
:1035B000FB019383828304C09093FB028093FA0201
:1035C000FE01329644C0FE01E20FF31F81939193F6
:1035D00022503109398328833AC02091F802309172
:1035E000F902232B41F42091060230910702309317
:1035F000F9022093F802209104023091050221156E
:10360000310541F42DB73EB74091080250910902AF
:10361000241B350BE091F802F091F902E217F30751
:10362000A0F42E1B3F0B2817390778F0AC014E5F32
:103630005F4F2417350748F04E0F5F1F5093F90274
:103640004093F8028193919302C0E0E0F0E0CF0153
:10365000DF91CF911F910F910895CF93DF93009742
:1036600009F481C0FC01329713821282A091FA0200
:10367000B091FB02109781F420813181820F931F5A
:103680002091F8023091F9022817390751F5F0938B
:10369000F902E093F80267C0ED0120E030E0CE17B8
:1036A000DF0740F44A815B819E0141155105F1F02D
:1036B000EA01F5CFD383C28340815181840F951FE6
:1036C000C817D90759F488819981840F951F0296EC
:1036D000918380838A819B81938382832115310525
:1036E00029F4F093FB02E093FA023DC0E901FB8369
:1036F000EA8349915991C40FD51FEC17FD0761F476
:1037000080819181840F951F0296E90199838883B6
:10371000828193819B838A83E0E0F0E012968D9111
:103720009C911397009719F0FD01DC01F7CF8D9163
:103730009C9111979D012E5F3F4F820F931F209107
:10374000F8023091F9022817390769F4309729F403
:103750001092FB021092FA0202C013821282B093FE
:10376000F902A093F802DF91CF91089581E090E0F3
:08377000F89400C0F894FFCFAB
:10377800010000000000FC02800000000000E101E0
:103788004B0179012D02AA0188019C016E616E002E
:0C379800696E66006F7666000D0A000086
:00000001FF
